{
  "transactions": [
    {
      "hash": "0x298fe27f99e19d0c19345d12ed2cf2469631e0ee538b15b433a057fb0dfb3792",
      "transactionType": "CREATE",
      "contractName": "FlowVestor",
      "contractAddress": "0x334ee44fB4d7dC560c51969fE5B9cb5AEfA24519",
      "function": null,
      "arguments": [
        "0xB5b060055F0d1eF5174329913ef861bC3aDdF029"
      ],
      "rpc": "https://canto.dexvaults.com/",
      "transaction": {
        "type": "0x02",
        "from": "0xd93142ed5b85fca4550153088750005759ce8318",
        "gas": "0x1131ea",
        "value": "0x0",
        "data": "0x60a060405234801561001057600080fd5b50604051610f3e380380610f3e83398101604081905261002f91610099565b61003833610049565b6001600160a01b03166080526100c9565b600080546001600160a01b038381166001600160a01b0319831681178455604051919092169283917f8be0079c531659141344cd1fd0a4f28419497f9722a3daafe3b4186f6b6457e09190a35050565b6000602082840312156100ab57600080fd5b81516001600160a01b03811681146100c257600080fd5b9392505050565b608051610e3f6100ff6000396000818160be0152818161052901528181610721015281816108270152610a9e0152610e3f6000f3fe608060405234801561001057600080fd5b50600436106100b45760003560e01c8063715018a611610071578063715018a6146101565780638da5cb5b1461015e57806394e351691461016f578063a20b95b714610182578063f2fde38b14610195578063f3c5f51e146101a857600080fd5b80633189097b146100b95780634cd3723a146100fd5780634cfc4d301461011e5780634e71d92d146101265780635fb630701461012e5780636a56ea7f14610143575b600080fd5b6100e07f000000000000000000000000000000000000000000000000000000000000000081565b6040516001600160a01b0390911681526020015b60405180910390f35b61011061010b366004610cdb565b610242565b6040519081526020016100f4565b6101106102c7565b6101106102d9565b61014161013c366004610cdb565b6105a3565b005b610141610151366004610cdb565b610656565b6101416108de565b6000546001600160a01b03166100e0565b61014161017d366004610cf6565b6108f2565b6001546100e0906001600160a01b031681565b6101416101a3366004610cdb565b610b4d565b6102006101b6366004610cdb565b600260205260009081526040902080546001909101546001600160c01b03821691600160c01b900467ffffffffffffffff16906001600160801b0380821691600160801b90041684565b604080516001600160c01b03909516855267ffffffffffffffff90931660208501526001600160801b03918216928401929092521660608201526080016100f4565b6001600160a01b0381166000908152600260209081526040808320815160808101835281546001600160c01b038116808352600160c01b90910467ffffffffffffffff169482018590526001909201546001600160801b03808216948301859052600160801b909104166060820181905290936102c0939091610bc6565b9392505050565b6102d66301e133806001610d36565b81565b336000908152600260209081526040808320815160808101835281546001600160c01b0381168252600160c01b900467ffffffffffffffff1693810193909352600101546001600160801b03808216928401839052600160801b909104166060830152820361037d5760405162461bcd60e51b815260206004820152600b60248201526a139bdd0814dd185c9d195960aa1b60448201526064015b60405180910390fd5b4281604001516001600160801b0316106103cb5760405162461bcd60e51b815260206004820152600f60248201526e139bdd0814dd185c9d19590816595d608a1b6044820152606401610374565b61040c81600001516001600160c01b0316826020015167ffffffffffffffff1683604001516001600160801b031684606001516001600160801b0316610bc6565b9150816000036104515760405162461bcd60e51b815260206004820152601060248201526f4e6f7468696e6720746f20636c61696d60801b6044820152606401610374565b81816000018181516104639190610d55565b6001600160c01b0390811690915267ffffffffffffffff4281166020808601918252336000818152600290925260409182902087519351909416600160c01b02929094169190911782558085015160608601516001600160801b03908116600160801b02911617600190920191909155519091507ed5958799b183a7b738d3ad5e711305293dd5076a37a4e3b7e6611dea6114f3906105059085815260200190565b60405180910390a260405163a9059cbb60e01b8152336004820152602481018390527f00000000000000000000000000000000000000000000000000000000000000006001600160a01b03169063a9059cbb906044016020604051808303816000875af115801561057a573d6000803e3d6000fd5b505050506040513d601f19601f8201168201806040525081019061059e9190610d7d565b505090565b6105ab610c15565b6001600160a01b0381166105ed5760405162461bcd60e51b815260206004820152600960248201526830206164647265737360b81b6044820152606401610374565b600154604080516001600160a01b03928316815291831660208301527fcc4f0f67b4aaf96b74a13747c48d875d228179f7c4bbba772bbd7af244788b18910160405180910390a1600180546001600160a01b0319166001600160a01b0392909216919091179055565b61065e610c15565b6001546001600160a01b03166106ac5760405162461bcd60e51b815260206004820152601360248201527230207265766f6b6520746f206164647265737360681b6044820152606401610374565b6001600160a01b0381166000908152600260205260409020546001600160c01b03168061070a5760405162461bcd60e51b815260206004820152600c60248201526b2737ba1030903b32b9ba32b960a11b6044820152606401610374565b6040516370a0823160e01b815230600482015281907f00000000000000000000000000000000000000000000000000000000000000006001600160a01b0316906370a0823190602401602060405180830381865afa158015610770573d6000803e3d6000fd5b505050506040513d601f19601f820116820180604052508101906107949190610d9f565b10156107e25760405162461bcd60e51b815260206004820152601960248201527f496e73756666696369656e7420464c4f572062616c616e6365000000000000006044820152606401610374565b6001600160a01b038281166000908152600260205260408082208281556001908101929092559054905163a9059cbb60e01b81529082166004820152602481018390527f00000000000000000000000000000000000000000000000000000000000000009091169063a9059cbb906044016020604051808303816000875af1158015610872573d6000803e3d6000fd5b505050506040513d601f19601f820116820180604052508101906108969190610d7d565b50604080516001600160a01b0384168152602081018390527f783e1ed1a9c0705072513edcad695c87164e3bedbba2f362c39cde3334dae94491015b60405180910390a15050565b6108e6610c15565b6108f06000610c6f565b565b6108fa610c15565b6001600160c01b038111156109515760405162461bcd60e51b815260206004820152601860248201527f416d6f756e74204f766572666c6f77732075696e7431393200000000000000006044820152606401610374565b6001600160a01b0382166000908152600260205260409020546001600160c01b0316156109b35760405162461bcd60e51b815260206004820152601060248201526f20b63932b0b23c9030903b32b9ba32b960811b6044820152606401610374565b6040518060800160405280826001600160c01b03168152602001600067ffffffffffffffff168152602001426001600160801b031681526020016301e1338060016109fe9190610d36565b610a089042610db8565b6001600160801b039081169091526001600160a01b0384811660009081526002602090815260409182902085519186015167ffffffffffffffff16600160c01b026001600160c01b03909216919091178155848201516060909501518416600160801b02949093169390931760019092019190915590516323b872dd60e01b8152336004820152306024820152604481018390527f0000000000000000000000000000000000000000000000000000000000000000909116906323b872dd906064016020604051808303816000875af1158015610ae9573d6000803e3d6000fd5b505050506040513d601f19601f82011682018060405250810190610b0d9190610d7d565b50604080516001600160a01b0384168152602081018390527f2f5488c5b0350655053f3d00e1693b26a49ecd0242b2c0df881ccda054490d3091016108d2565b610b55610c15565b6001600160a01b038116610bba5760405162461bcd60e51b815260206004820152602660248201527f4f776e61626c653a206e6577206f776e657220697320746865207a65726f206160448201526564647265737360d01b6064820152608401610374565b610bc381610c6f565b50565b6000814210610bd6575083610c0d565b83600003610be2578293505b610bec8483610dd0565b610bf68542610dd0565b610c009087610d36565b610c0a9190610de7565b90505b949350505050565b6000546001600160a01b031633146108f05760405162461bcd60e51b815260206004820181905260248201527f4f776e61626c653a2063616c6c6572206973206e6f7420746865206f776e65726044820152606401610374565b600080546001600160a01b038381166001600160a01b0319831681178455604051919092169283917f8be0079c531659141344cd1fd0a4f28419497f9722a3daafe3b4186f6b6457e09190a35050565b80356001600160a01b0381168114610cd657600080fd5b919050565b600060208284031215610ced57600080fd5b6102c082610cbf565b60008060408385031215610d0957600080fd5b610d1283610cbf565b946020939093013593505050565b634e487b7160e01b600052601160045260246000fd5b6000816000190483118215151615610d5057610d50610d20565b500290565b60006001600160c01b0383811690831681811015610d7557610d75610d20565b039392505050565b600060208284031215610d8f57600080fd5b815180151581146102c057600080fd5b600060208284031215610db157600080fd5b5051919050565b60008219821115610dcb57610dcb610d20565b500190565b600082821015610de257610de2610d20565b500390565b600082610e0457634e487b7160e01b600052601260045260246000fd5b50049056fea2646970667358221220a892984989215ecf9f2e8214cfdc8ea7379ecc1956d406bcf95f477ec3e7608564736f6c634300080d0033000000000000000000000000b5b060055f0d1ef5174329913ef861bc3addf029",
        "nonce": "0xeb",
        "accessList": []
      },
      "additionalContracts": []
    },
    {
      "hash": "0x9e10802bda4a8a2c79f93f389ce38584bffe3de33b5287fac840617536e37000",
      "transactionType": "CALL",
      "contractName": null,
      "contractAddress": "0xB5b060055F0d1eF5174329913ef861bC3aDdF029",
      "function": null,
      "arguments": null,
      "rpc": "https://canto.dexvaults.com/",
      "transaction": {
        "type": "0x02",
        "from": "0xd93142ed5b85fca4550153088750005759ce8318",
        "to": "0xb5b060055f0d1ef5174329913ef861bc3addf029",
        "gas": "0x10822",
        "value": "0x0",
        "data": "0x095ea7b3000000000000000000000000334ee44fb4d7dc560c51969fe5b9cb5aefa2451900000000000000000000000000000000000000000003b8e97d229a2d54800000",
        "nonce": "0xec",
        "accessList": []
      },
      "additionalContracts": []
    },
    {
      "hash": "0x5c4c1dc0b09b63728407fbc0a6f51c685df6b96c9ddc2f3531415ba54f7cff36",
      "transactionType": "CALL",
      "contractName": "FlowVestor",
      "contractAddress": "0x334ee44fB4d7dC560c51969fE5B9cb5AEfA24519",
      "function": "vestFor(address,uint256)",
      "arguments": [
        "0x0b776552c1Aef1Dc33005DD25AcDA22493b6615d",
        "2000000000000000000000000"
      ],
      "rpc": "https://canto.dexvaults.com/",
      "transaction": {
        "type": "0x02",
        "from": "0xd93142ed5b85fca4550153088750005759ce8318",
        "to": "0x334ee44fb4d7dc560c51969fe5b9cb5aefa24519",
        "gas": "0x26daa",
        "value": "0x0",
        "data": "0x94e351690000000000000000000000000b776552c1aef1dc33005dd25acda22493b6615d00000000000000000000000000000000000000000001a784379d99db42000000",
        "nonce": "0xed",
        "accessList": []
      },
      "additionalContracts": []
    },
    {
      "hash": "0x1113eeaa3b152194fb9735b210b11ff5f53876047e1729f93c3ca1a5b9f3b558",
      "transactionType": "CALL",
      "contractName": "FlowVestor",
      "contractAddress": "0x334ee44fB4d7dC560c51969fE5B9cb5AEfA24519",
      "function": "vestFor(address,uint256)",
      "arguments": [
        "0x78e801136F77805239A7F533521A7a5570F572C8",
        "2000000000000000000000000"
      ],
      "rpc": "https://canto.dexvaults.com/",
      "transaction": {
        "type": "0x02",
        "from": "0xd93142ed5b85fca4550153088750005759ce8318",
        "to": "0x334ee44fb4d7dc560c51969fe5b9cb5aefa24519",
        "gas": "0x20c0a",
        "value": "0x0",
        "data": "0x94e3516900000000000000000000000078e801136f77805239a7f533521a7a5570f572c800000000000000000000000000000000000000000001a784379d99db42000000",
        "nonce": "0xee",
        "accessList": []
      },
      "additionalContracts": []
    },
    {
      "hash": "0x91c725edc6b26c7d26487053473ac351d19aa3252ebf74eb34353915ce3555eb",
      "transactionType": "CALL",
      "contractName": "FlowVestor",
      "contractAddress": "0x334ee44fB4d7dC560c51969fE5B9cb5AEfA24519",
      "function": "vestFor(address,uint256)",
      "arguments": [
        "0x03B88DacB7c21B54cEfEcC297D981E5b721A9dF1",
        "500000000000000000000000"
      ],
      "rpc": "https://canto.dexvaults.com/",
      "transaction": {
        "type": "0x02",
        "from": "0xd93142ed5b85fca4550153088750005759ce8318",
        "to": "0x334ee44fb4d7dc560c51969fe5b9cb5aefa24519",
        "gas": "0x1f09e",
        "value": "0x0",
        "data": "0x94e3516900000000000000000000000003b88dacb7c21b54cefecc297d981e5b721a9df10000000000000000000000000000000000000000000069e10de76676d0800000",
        "nonce": "0xef",
        "accessList": []
      },
      "additionalContracts": []
    },
    {
      "hash": "0xaea7392ab0dbc7323fa989bea56c77abaf451c20c33ea428003cadff7850e02b",
      "transactionType": "CALL",
      "contractName": "FlowVestor",
      "contractAddress": "0x334ee44fB4d7dC560c51969fE5B9cb5AEfA24519",
      "function": "transferOwnership(address)",
      "arguments": [
        "0x13eeB8EdfF60BbCcB24Ec7Dd5668aa246525Dc51"
      ],
      "rpc": "https://canto.dexvaults.com/",
      "transaction": {
        "type": "0x02",
        "from": "0xd93142ed5b85fca4550153088750005759ce8318",
        "to": "0x334ee44fb4d7dc560c51969fe5b9cb5aefa24519",
        "gas": "0x9a97",
        "value": "0x0",
        "data": "0xf2fde38b00000000000000000000000013eeb8edff60bbccb24ec7dd5668aa246525dc51",
        "nonce": "0xf0",
        "accessList": []
      },
      "additionalContracts": []
    },
    {
      "hash": "0x59ccc0f86a2010764d065dfcc98eb0098085348162623ad641cbf3c67d251fa7",
      "transactionType": "CALL",
      "contractName": null,
      "contractAddress": "0xB5b060055F0d1eF5174329913ef861bC3aDdF029",
      "function": null,
      "arguments": null,
      "rpc": "https://canto.dexvaults.com/",
      "transaction": {
        "type": "0x02",
        "from": "0xd93142ed5b85fca4550153088750005759ce8318",
        "to": "0xb5b060055f0d1ef5174329913ef861bc3addf029",
        "gas": "0xfb72",
        "value": "0x0",
        "data": "0xa9059cbb00000000000000000000000013eeb8edff60bbccb24ec7dd5668aa246525dc510000000000000000000000000000000000000000001768c9aa548bf5528ce800",
        "nonce": "0xf1",
        "accessList": []
      },
      "additionalContracts": []
    }
  ],
  "receipts": [
    {
      "transactionHash": "0x298fe27f99e19d0c19345d12ed2cf2469631e0ee538b15b433a057fb0dfb3792",
      "transactionIndex": "0x0",
      "blockHash": "0xe36fc47e3574d7d4ebc386abd2187efbb0313d9c6676e907a1a93b1882e0478b",
      "blockNumber": "0x326a92",
      "from": "0xD93142ED5B85FcA4550153088750005759CE8318",
      "to": null,
      "cumulativeGasUsed": "0xd3a17",
      "gasUsed": "0xd3a17",
      "contractAddress": "0x334ee44fB4d7dC560c51969fE5B9cb5AEfA24519",
      "logs": [
        {
          "address": "0x334ee44fB4d7dC560c51969fE5B9cb5AEfA24519",
          "topics": [
            "0x8be0079c531659141344cd1fd0a4f28419497f9722a3daafe3b4186f6b6457e0",
            "0x0000000000000000000000000000000000000000000000000000000000000000",
            "0x000000000000000000000000d93142ed5b85fca4550153088750005759ce8318"
          ],
          "data": "0x",
          "blockHash": "0xe36fc47e3574d7d4ebc386abd2187efbb0313d9c6676e907a1a93b1882e0478b",
          "blockNumber": "0x326a92",
          "transactionHash": "0x298fe27f99e19d0c19345d12ed2cf2469631e0ee538b15b433a057fb0dfb3792",
          "transactionIndex": "0x0",
          "logIndex": "0x0",
          "removed": false
        }
      ],
      "status": "0x1",
      "logsBloom": "0x00000000000000000000000000000000000000000000000000800000000000000000000000000000000000000000000000000000000000000000000000000000000000000000000000000000000000000001000000000000000000000000000000000000020000000000000000000800000000000000000000000000000000400000000000000000000000000000000000000000000000020000000000000001000000000000000000000000000000000000000000000000000000000001000000000000000000000000000000000000000000008000000000000000000020000000000000000200000000800000000000000000000000000000000000000000",
      "effectiveGasPrice": "0xf5cb046f48"
    },
    {
      "transactionHash": "0x9e10802bda4a8a2c79f93f389ce38584bffe3de33b5287fac840617536e37000",
      "transactionIndex": "0x0",
      "blockHash": "0xf81738bd32dfcd6a4fd3fd0c5b8e25d9e1fd3e7fc551dac6a007c4a083075f61",
      "blockNumber": "0x326a94",
      "from": "0xD93142ED5B85FcA4550153088750005759CE8318",
      "to": "0xB5b060055F0d1eF5174329913ef861bC3aDdF029",
      "cumulativeGasUsed": "0xb49b",
      "gasUsed": "0xb49b",
      "contractAddress": null,
      "logs": [
        {
          "address": "0xB5b060055F0d1eF5174329913ef861bC3aDdF029",
          "topics": [
            "0x8c5be1e5ebec7d5bd14f71427d1e84f3dd0314c0f7b2291e5b200ac8c7c3b925",
            "0x000000000000000000000000d93142ed5b85fca4550153088750005759ce8318",
            "0x000000000000000000000000334ee44fb4d7dc560c51969fe5b9cb5aefa24519"
          ],
          "data": "0x00000000000000000000000000000000000000000003b8e97d229a2d54800000",
          "blockHash": "0xf81738bd32dfcd6a4fd3fd0c5b8e25d9e1fd3e7fc551dac6a007c4a083075f61",
          "blockNumber": "0x326a94",
          "transactionHash": "0x9e10802bda4a8a2c79f93f389ce38584bffe3de33b5287fac840617536e37000",
          "transactionIndex": "0x0",
          "logIndex": "0x0",
          "removed": false
        }
      ],
      "status": "0x1",
      "logsBloom": "0x00000000000000000000000000000000000000000000000000000000000000000000000000000000000000000000000000000000000000000000000000200008000000000000000000000000000000000000000000000000000000000000020000000000000000000000000000000000000000000000100000000000000000000000000000000000000000000000000000000000000000020000000000000000020000000000000000000000000000000000000000000000000000000081000000000000000000000000000000000000000000000000100000000000000000000110000000000200000000000000000000000000000000000000000000000000",
      "effectiveGasPrice": "0xf5cb046f48"
    },
    {
      "transactionHash": "0x5c4c1dc0b09b63728407fbc0a6f51c685df6b96c9ddc2f3531415ba54f7cff36",
      "transactionIndex": "0x0",
      "blockHash": "0x4785bbdebcc9ed0639017886076801093b447f98be5387d6ab7635727457844e",
      "blockNumber": "0x326a96",
      "from": "0xD93142ED5B85FcA4550153088750005759CE8318",
      "to": "0x334ee44fB4d7dC560c51969fE5B9cb5AEfA24519",
      "cumulativeGasUsed": "0x1a912",
      "gasUsed": "0x1a912",
      "contractAddress": null,
      "logs": [
        {
          "address": "0xB5b060055F0d1eF5174329913ef861bC3aDdF029",
          "topics": [
            "0xddf252ad1be2c89b69c2b068fc378daa952ba7f163c4a11628f55a4df523b3ef",
            "0x000000000000000000000000d93142ed5b85fca4550153088750005759ce8318",
            "0x000000000000000000000000334ee44fb4d7dc560c51969fe5b9cb5aefa24519"
          ],
          "data": "0x00000000000000000000000000000000000000000001a784379d99db42000000",
          "blockHash": "0x4785bbdebcc9ed0639017886076801093b447f98be5387d6ab7635727457844e",
          "blockNumber": "0x326a96",
          "transactionHash": "0x5c4c1dc0b09b63728407fbc0a6f51c685df6b96c9ddc2f3531415ba54f7cff36",
          "transactionIndex": "0x0",
          "logIndex": "0x0",
          "removed": false
        },
        {
          "address": "0x334ee44fB4d7dC560c51969fE5B9cb5AEfA24519",
          "topics": [
            "0x2f5488c5b0350655053f3d00e1693b26a49ecd0242b2c0df881ccda054490d30"
          ],
          "data": "0x0000000000000000000000000b776552c1aef1dc33005dd25acda22493b6615d00000000000000000000000000000000000000000001a784379d99db42000000",
          "blockHash": "0x4785bbdebcc9ed0639017886076801093b447f98be5387d6ab7635727457844e",
          "blockNumber": "0x326a96",
          "transactionHash": "0x5c4c1dc0b09b63728407fbc0a6f51c685df6b96c9ddc2f3531415ba54f7cff36",
          "transactionIndex": "0x0",
          "logIndex": "0x1",
          "removed": false
        }
      ],
      "status": "0x1",
      "logsBloom": "0x00000000000000000000000000000000000000000000000000000000000000000000000000000000000000000000000000000000000000000000000000000008000200000800000000000008000000000000000000000000000000000000020000000000000000000000000000000000000000000000100000000010000000000000000000000000000000000000000000000000000000020000000000004001000000000000000000000000000000000000000000000000000000000081000000000002000000000000000000000000000000008000100000000000000000000100000000000200000000800000000000000000000000000000000000000000",
      "effectiveGasPrice": "0xf5cb046f48"
    },
    {
      "transactionHash": "0x1113eeaa3b152194fb9735b210b11ff5f53876047e1729f93c3ca1a5b9f3b558",
      "transactionIndex": "0x0",
      "blockHash": "0x24dd4bf150c89c8e3f883b59e0aa7188ffbeb277540148f764b861ebf55088b9",
      "blockNumber": "0x326a97",
      "from": "0xD93142ED5B85FcA4550153088750005759CE8318",
      "to": "0x334ee44fB4d7dC560c51969fE5B9cb5AEfA24519",
      "cumulativeGasUsed": "0x16652",
      "gasUsed": "0x16652",
      "contractAddress": null,
      "logs": [
        {
          "address": "0xB5b060055F0d1eF5174329913ef861bC3aDdF029",
          "topics": [
            "0xddf252ad1be2c89b69c2b068fc378daa952ba7f163c4a11628f55a4df523b3ef",
            "0x000000000000000000000000d93142ed5b85fca4550153088750005759ce8318",
            "0x000000000000000000000000334ee44fb4d7dc560c51969fe5b9cb5aefa24519"
          ],
          "data": "0x00000000000000000000000000000000000000000001a784379d99db42000000",
          "blockHash": "0x24dd4bf150c89c8e3f883b59e0aa7188ffbeb277540148f764b861ebf55088b9",
          "blockNumber": "0x326a97",
          "transactionHash": "0x1113eeaa3b152194fb9735b210b11ff5f53876047e1729f93c3ca1a5b9f3b558",
          "transactionIndex": "0x0",
          "logIndex": "0x0",
          "removed": false
        },
        {
          "address": "0x334ee44fB4d7dC560c51969fE5B9cb5AEfA24519",
          "topics": [
            "0x2f5488c5b0350655053f3d00e1693b26a49ecd0242b2c0df881ccda054490d30"
          ],
          "data": "0x00000000000000000000000078e801136f77805239a7f533521a7a5570f572c800000000000000000000000000000000000000000001a784379d99db42000000",
          "blockHash": "0x24dd4bf150c89c8e3f883b59e0aa7188ffbeb277540148f764b861ebf55088b9",
          "blockNumber": "0x326a97",
          "transactionHash": "0x1113eeaa3b152194fb9735b210b11ff5f53876047e1729f93c3ca1a5b9f3b558",
          "transactionIndex": "0x0",
          "logIndex": "0x1",
          "removed": false
        }
      ],
      "status": "0x1",
      "logsBloom": "0x00000000000000000000000000000000000000000000000000000000000000000000000000000000000000000000000000000000000000000000000000000008000200000800000000000008000000000000000000000000000000000000020000000000000000000000000000000000000000000000100000000010000000000000000000000000000000000000000000000000000000020000000000004001000000000000000000000000000000000000000000000000000000000081000000000002000000000000000000000000000000008000100000000000000000000100000000000200000000800000000000000000000000000000000000000000",
      "effectiveGasPrice": "0xf5cb046f48"
    },
    {
      "transactionHash": "0x91c725edc6b26c7d26487053473ac351d19aa3252ebf74eb34353915ce3555eb",
      "transactionIndex": "0x2",
      "blockHash": "0x311689996f2c59543ab4ca04d0ee4fcdcc4ac693a333051d904f5a170e274d03",
      "blockNumber": "0x326a99",
      "from": "0xD93142ED5B85FcA4550153088750005759CE8318",
      "to": "0x334ee44fB4d7dC560c51969fE5B9cb5AEfA24519",
      "cumulativeGasUsed": "0x1bd570",
      "gasUsed": "0x15392",
      "contractAddress": null,
      "logs": [
        {
          "address": "0xB5b060055F0d1eF5174329913ef861bC3aDdF029",
          "topics": [
            "0xddf252ad1be2c89b69c2b068fc378daa952ba7f163c4a11628f55a4df523b3ef",
            "0x000000000000000000000000d93142ed5b85fca4550153088750005759ce8318",
            "0x000000000000000000000000334ee44fb4d7dc560c51969fe5b9cb5aefa24519"
          ],
          "data": "0x0000000000000000000000000000000000000000000069e10de76676d0800000",
          "blockHash": "0x311689996f2c59543ab4ca04d0ee4fcdcc4ac693a333051d904f5a170e274d03",
          "blockNumber": "0x326a99",
          "transactionHash": "0x91c725edc6b26c7d26487053473ac351d19aa3252ebf74eb34353915ce3555eb",
          "transactionIndex": "0x2",
          "logIndex": "0x19",
          "removed": false
        },
        {
          "address": "0x334ee44fB4d7dC560c51969fE5B9cb5AEfA24519",
          "topics": [
            "0x2f5488c5b0350655053f3d00e1693b26a49ecd0242b2c0df881ccda054490d30"
          ],
          "data": "0x00000000000000000000000003b88dacb7c21b54cefecc297d981e5b721a9df10000000000000000000000000000000000000000000069e10de76676d0800000",
          "blockHash": "0x311689996f2c59543ab4ca04d0ee4fcdcc4ac693a333051d904f5a170e274d03",
          "blockNumber": "0x326a99",
          "transactionHash": "0x91c725edc6b26c7d26487053473ac351d19aa3252ebf74eb34353915ce3555eb",
          "transactionIndex": "0x2",
          "logIndex": "0x1a",
          "removed": false
        }
      ],
      "status": "0x1",
      "logsBloom": "0x00000000000000000000000000000000000000000000000000000000000000000000000000000000000000000000000000000000000000000000000000000008000200000800000000000008000000000000000000000000000000000000020000000000000000000000000000000000000000000000100000000010000000000000000000000000000000000000000000000000000000020000000000004001000000000000000000000000000000000000000000000000000000000081000000000002000000000000000000000000000000008000100000000000000000000100000000000200000000800000000000000000000000000000000000000000",
      "effectiveGasPrice": "0xf5cb046f48"
    },
    {
      "transactionHash": "0xaea7392ab0dbc7323fa989bea56c77abaf451c20c33ea428003cadff7850e02b",
      "transactionIndex": "0x0",
      "blockHash": "0x87818c4829f5775a43e368c173c5e12f9dfce8fb35db5ddcb1622d87bd694166",
      "blockNumber": "0x326a9b",
      "from": "0xD93142ED5B85FcA4550153088750005759CE8318",
      "to": "0x334ee44fB4d7dC560c51969fE5B9cb5AEfA24519",
      "cumulativeGasUsed": "0x6fed",
      "gasUsed": "0x6fed",
      "contractAddress": null,
      "logs": [
        {
          "address": "0x334ee44fB4d7dC560c51969fE5B9cb5AEfA24519",
          "topics": [
            "0x8be0079c531659141344cd1fd0a4f28419497f9722a3daafe3b4186f6b6457e0",
            "0x000000000000000000000000d93142ed5b85fca4550153088750005759ce8318",
            "0x00000000000000000000000013eeb8edff60bbccb24ec7dd5668aa246525dc51"
          ],
          "data": "0x",
          "blockHash": "0x87818c4829f5775a43e368c173c5e12f9dfce8fb35db5ddcb1622d87bd694166",
          "blockNumber": "0x326a9b",
          "transactionHash": "0xaea7392ab0dbc7323fa989bea56c77abaf451c20c33ea428003cadff7850e02b",
          "transactionIndex": "0x0",
          "logIndex": "0x0",
          "removed": false
        }
      ],
      "status": "0x1",
      "logsBloom": "0x00000000000000000000000000000080000000000000000000800000000000000000000000000000000000000000000000000000000000000000000000000000000000000000000000000000000000000001000000000000000000000000000000000000000000000020000000000000000000000000000000000000000000400000000000000000000000000000000000000000000000020000000000000001000000000000000000000000000000000000000000000000000000000001000200000000000000000000000000000000000000008000000000000000000000000000000000000200000000800000000000000000000000000000000000000000",
      "effectiveGasPrice": "0xf5cb046f48"
    },
    {
      "transactionHash": "0x59ccc0f86a2010764d065dfcc98eb0098085348162623ad641cbf3c67d251fa7",
      "transactionIndex": "0x0",
      "blockHash": "0x4612cd4f93881b04e6eb8b0e52229d2a11f8e5b8e07552f705d13d39a1d9be31",
      "blockNumber": "0x326a9d",
      "from": "0xD93142ED5B85FcA4550153088750005759CE8318",
      "to": "0xB5b060055F0d1eF5174329913ef861bC3aDdF029",
      "cumulativeGasUsed": "0xb60c",
      "gasUsed": "0xb60c",
      "contractAddress": null,
      "logs": [
        {
          "address": "0xB5b060055F0d1eF5174329913ef861bC3aDdF029",
          "topics": [
            "0xddf252ad1be2c89b69c2b068fc378daa952ba7f163c4a11628f55a4df523b3ef",
            "0x000000000000000000000000d93142ed5b85fca4550153088750005759ce8318",
            "0x00000000000000000000000013eeb8edff60bbccb24ec7dd5668aa246525dc51"
          ],
          "data": "0x0000000000000000000000000000000000000000001768c9aa548bf5528ce800",
          "blockHash": "0x4612cd4f93881b04e6eb8b0e52229d2a11f8e5b8e07552f705d13d39a1d9be31",
          "blockNumber": "0x326a9d",
          "transactionHash": "0x59ccc0f86a2010764d065dfcc98eb0098085348162623ad641cbf3c67d251fa7",
          "transactionIndex": "0x0",
          "logIndex": "0x0",
          "removed": false
        }
      ],
      "status": "0x1",
      "logsBloom": "0x00000000000000000000000000000080000000000000000000000000000000000000000000000000000000000000000000000000000000000000000000000000000000000000000000000008000000000000000000000000000000000000020000000000000000000020000000000000000000000000100000000010000000000000000000000000000000000000000000000000000000020000000000000000000000000000000000000000000000000000000000000000000000000081000200000002000000000000000000000000000000000000000000000000000000000000000000000200000000000000000000000000000000000000000000000000",
      "effectiveGasPrice": "0xf5cb046f48"
    }
  ],
  "libraries": [],
  "pending": [],
  "path": "/Users/CALVIN/crypto/velocimeter/gg/contracts-latest/broadcast/TeamMemberVesting.s.sol/7700/run-latest.json",
  "returns": {},
  "timestamp": 1678531705,
  "chain": 7700,
  "multi": false,
  "commit": "534d794"
}