{
  "transactions": [
    {
      "hash": "0x8f75fda49aa25773302fbff7ca75aa1a5b3f4a10bcb382b8a8f369ad4ef420ed",
      "transactionType": "CREATE",
      "contractName": "FlowConvertor",
      "contractAddress": "0x63dF314EA0912412ff1cDC5A43585477d08CE5e9",
      "function": null,
      "arguments": [
        "0x2Baec546a92cA3469f71b7A091f7dF61e5569889",
        "0xB5b060055F0d1eF5174329913ef861bC3aDdF029"
      ],
      "rpc": "https://canto.dexvaults.com/",
      "transaction": {
        "type": "0x02",
        "from": "0xd93142ed5b85fca4550153088750005759ce8318",
        "gas": "0xc9906",
        "value": "0x0",
        "data": "0x60c060405234801561001057600080fd5b50604051610b51380380610b5183398101604081905261002f916100bb565b6100383361004f565b6001600160a01b039182166080521660a0526100ee565b600080546001600160a01b038381166001600160a01b0319831681178455604051919092169283917f8be0079c531659141344cd1fd0a4f28419497f9722a3daafe3b4186f6b6457e09190a35050565b80516001600160a01b03811681146100b657600080fd5b919050565b600080604083850312156100ce57600080fd5b6100d78361009f565b91506100e56020840161009f565b90509250929050565b60805160a051610a0e610143600039600081816101470152818161019c01528181610216015281816102c7015261038001526000818160c50152818161029a0152818161035601526104290152610a0e6000f3fe608060405234801561001057600080fd5b50600436106100935760003560e01c80638da5cb5b116100665780638da5cb5b1461010b578063db006a751461011c578063f2fde38b1461012f578063f3acae3a14610142578063f587268a1461016957600080fd5b80631b2ba1e7146100985780632f7605fb146100ad5780636854171d146100c0578063715018a614610103575b600080fd5b6100ab6100a6366004610881565b61017c565b005b6100ab6100bb3660046108a3565b610240565b6100e77f000000000000000000000000000000000000000000000000000000000000000081565b6040516001600160a01b03909116815260200160405180910390f35b6100ab6102ed565b6000546001600160a01b03166100e7565b6100ab61012a3660046108cd565b610301565b6100ab61013d366004610881565b6103a9565b6100e77f000000000000000000000000000000000000000000000000000000000000000081565b6100ab6101773660046108e6565b61041f565b6101846104b8565b6040516370a0823160e01b81523060048201526000907f00000000000000000000000000000000000000000000000000000000000000006001600160a01b0316906370a0823190602401602060405180830381865afa1580156101eb573d6000803e3d6000fd5b505050506040513d601f19601f8201168201806040525081019061020f9190610922565b905061023c7f00000000000000000000000000000000000000000000000000000000000000008383610512565b5050565b600081116102955760405162461bcd60e51b815260206004820152601b60248201527f796f7520646f6e74206861766520616e6420763120746f6b656e73000000000060448201526064015b60405180910390fd5b6102c27f0000000000000000000000000000000000000000000000000000000000000000335b3084610575565b61023c7f00000000000000000000000000000000000000000000000000000000000000008383610512565b6102f56104b8565b6102ff60006105b3565b565b600081116103515760405162461bcd60e51b815260206004820152601b60248201527f796f7520646f6e74206861766520616e6420763120746f6b656e730000000000604482015260640161028c565b61037b7f0000000000000000000000000000000000000000000000000000000000000000336102bb565b6103a67f00000000000000000000000000000000000000000000000000000000000000003383610512565b50565b6103b16104b8565b6001600160a01b0381166104165760405162461bcd60e51b815260206004820152602660248201527f4f776e61626c653a206e6577206f776e657220697320746865207a65726f206160448201526564647265737360d01b606482015260840161028c565b6103a6816105b3565b6104276104b8565b7f00000000000000000000000000000000000000000000000000000000000000006001600160a01b0316836001600160a01b0316036104a85760405162461bcd60e51b815260206004820181905260248201527f746865736520746b6e732061726520657373656e7469616c6c79206275726e74604482015260640161028c565b6104b3838383610512565b505050565b6000546001600160a01b031633146102ff5760405162461bcd60e51b815260206004820181905260248201527f4f776e61626c653a2063616c6c6572206973206e6f7420746865206f776e6572604482015260640161028c565b6040516001600160a01b0383166024820152604481018290526104b390849063a9059cbb60e01b906064015b60408051601f198184030181529190526020810180516001600160e01b03166001600160e01b031990931692909217909152610603565b6040516001600160a01b03808516602483015283166044820152606481018290526105ad9085906323b872dd60e01b9060840161053e565b50505050565b600080546001600160a01b038381166001600160a01b0319831681178455604051919092169283917f8be0079c531659141344cd1fd0a4f28419497f9722a3daafe3b4186f6b6457e09190a35050565b6000610658826040518060400160405280602081526020017f5361666545524332303a206c6f772d6c6576656c2063616c6c206661696c6564815250856001600160a01b03166106d59092919063ffffffff16565b8051909150156104b35780806020019051810190610676919061093b565b6104b35760405162461bcd60e51b815260206004820152602a60248201527f5361666545524332303a204552433230206f7065726174696f6e20646964206e6044820152691bdd081cdd58d8d9595960b21b606482015260840161028c565b60606106e484846000856106ec565b949350505050565b60608247101561074d5760405162461bcd60e51b815260206004820152602660248201527f416464726573733a20696e73756666696369656e742062616c616e636520666f6044820152651c8818d85b1b60d21b606482015260840161028c565b600080866001600160a01b031685876040516107699190610989565b60006040518083038185875af1925050503d80600081146107a6576040519150601f19603f3d011682016040523d82523d6000602084013e6107ab565b606091505b50915091506107bc878383876107c7565b979650505050505050565b6060831561083657825160000361082f576001600160a01b0385163b61082f5760405162461bcd60e51b815260206004820152601d60248201527f416464726573733a2063616c6c20746f206e6f6e2d636f6e7472616374000000604482015260640161028c565b50816106e4565b6106e4838381511561084b5781518083602001fd5b8060405162461bcd60e51b815260040161028c91906109a5565b80356001600160a01b038116811461087c57600080fd5b919050565b60006020828403121561089357600080fd5b61089c82610865565b9392505050565b600080604083850312156108b657600080fd5b6108bf83610865565b946020939093013593505050565b6000602082840312156108df57600080fd5b5035919050565b6000806000606084860312156108fb57600080fd5b61090484610865565b925061091260208501610865565b9150604084013590509250925092565b60006020828403121561093457600080fd5b5051919050565b60006020828403121561094d57600080fd5b8151801515811461089c57600080fd5b60005b83811015610978578181015183820152602001610960565b838111156105ad5750506000910152565b6000825161099b81846020870161095d565b9190910192915050565b60208152600082518060208401526109c481604085016020870161095d565b601f01601f1916919091016040019291505056fea2646970667358221220d698fab9aed1bee3017ff7b63d9efc33e49385a772ab182d652e7bf92f0da2b364736f6c634300080d00330000000000000000000000002baec546a92ca3469f71b7a091f7df61e5569889000000000000000000000000b5b060055f0d1ef5174329913ef861bc3addf029",
        "nonce": "0x19",
        "accessList": []
      },
      "additionalContracts": []
    },
    {
      "hash": "0xb4fe06aff184834b23659c4eb0b0ebebdc57fbf529efb67b89b5488e92bb13ce",
      "transactionType": "CALL",
      "contractName": "FlowConvertor",
      "contractAddress": "0x63dF314EA0912412ff1cDC5A43585477d08CE5e9",
      "function": "transferOwnership(address)",
      "arguments": [
        "0x13eeB8EdfF60BbCcB24Ec7Dd5668aa246525Dc51"
      ],
      "rpc": "https://canto.dexvaults.com/",
      "transaction": {
        "type": "0x02",
        "from": "0xd93142ed5b85fca4550153088750005759ce8318",
        "to": "0x63df314ea0912412ff1cdc5a43585477d08ce5e9",
        "gas": "0xa370",
        "value": "0x0",
        "data": "0xf2fde38b00000000000000000000000013eeb8edff60bbccb24ec7dd5668aa246525dc51",
        "nonce": "0x1a",
        "accessList": []
      },
      "additionalContracts": []
    },
    {
      "hash": "0x565b85850222ef5482e56163fd868963c876e51a266179da818d0a34b3f45a4a",
      "transactionType": "CALL",
      "contractName": null,
      "contractAddress": "0xB5b060055F0d1eF5174329913ef861bC3aDdF029",
      "function": null,
      "arguments": null,
      "rpc": "https://canto.dexvaults.com/",
      "transaction": {
        "type": "0x02",
        "from": "0xd93142ed5b85fca4550153088750005759ce8318",
        "to": "0xb5b060055f0d1ef5174329913ef861bc3addf029",
        "gas": "0x11538",
        "value": "0x0",
        "data": "0xa9059cbb00000000000000000000000063df314ea0912412ff1cdc5a43585477d08ce5e9000000000000000000000000000000000000000000295be96e64066972000000",
        "nonce": "0x1b",
        "accessList": []
      },
      "additionalContracts": []
    }
  ],
  "receipts": [
    {
      "transactionHash": "0x8f75fda49aa25773302fbff7ca75aa1a5b3f4a10bcb382b8a8f369ad4ef420ed",
      "transactionIndex": "0x0",
      "blockHash": "0x42cda5c108eab152d58de11b3432db557abe5ed4d7dafdb61f691e7a3961ff76",
      "blockNumber": "0x3264d8",
      "from": "0xD93142ED5B85FcA4550153088750005759CE8318",
      "to": null,
      "cumulativeGasUsed": "0x9b0ca",
      "gasUsed": "0x9b0ca",
      "contractAddress": "0x63dF314EA0912412ff1cDC5A43585477d08CE5e9",
      "logs": [
        {
          "address": "0x63dF314EA0912412ff1cDC5A43585477d08CE5e9",
          "topics": [
            "0x8be0079c531659141344cd1fd0a4f28419497f9722a3daafe3b4186f6b6457e0",
            "0x0000000000000000000000000000000000000000000000000000000000000000",
            "0x000000000000000000000000d93142ed5b85fca4550153088750005759ce8318"
          ],
          "data": "0x",
          "blockHash": "0x42cda5c108eab152d58de11b3432db557abe5ed4d7dafdb61f691e7a3961ff76",
          "blockNumber": "0x3264d8",
          "transactionHash": "0x8f75fda49aa25773302fbff7ca75aa1a5b3f4a10bcb382b8a8f369ad4ef420ed",
          "transactionIndex": "0x0",
          "logIndex": "0x0",
          "removed": false
        }
      ],
      "status": "0x1",
      "logsBloom": "0x00000000000000000000000000000000000000000000000000800000000000000000008000000000000001000000000000000000000000000000000000000000000000000000000000000000000000000001000000000000000000000000000000000000020000000000000000000800000000000000000000000000000000400000000000000000000000000000000000000000000000020000000000000000000000000000000000000000000000000000000000000000000000000001000000000000000000000000000000000000000000000000000000000000000020000000000000000200000000000000000000000000000000000000000040000000",
      "effectiveGasPrice": "0xe987756e00"
    },
    {
      "transactionHash": "0xb4fe06aff184834b23659c4eb0b0ebebdc57fbf529efb67b89b5488e92bb13ce",
      "transactionIndex": "0x0",
      "blockHash": "0x2122527564ec74418e32cada6c31d7b2c5fe715188e9ad499a020ca6c848995b",
      "blockNumber": "0x3264da",
      "from": "0xD93142ED5B85FcA4550153088750005759CE8318",
      "to": "0x63dF314EA0912412ff1cDC5A43585477d08CE5e9",
      "cumulativeGasUsed": "0x8aab7",
      "gasUsed": "0x6fc1",
      "contractAddress": null,
      "logs": [
        {
          "address": "0x63dF314EA0912412ff1cDC5A43585477d08CE5e9",
          "topics": [
            "0x8be0079c531659141344cd1fd0a4f28419497f9722a3daafe3b4186f6b6457e0",
            "0x000000000000000000000000d93142ed5b85fca4550153088750005759ce8318",
            "0x00000000000000000000000013eeb8edff60bbccb24ec7dd5668aa246525dc51"
          ],
          "data": "0x",
          "blockHash": "0x2122527564ec74418e32cada6c31d7b2c5fe715188e9ad499a020ca6c848995b",
          "blockNumber": "0x3264da",
          "transactionHash": "0xb4fe06aff184834b23659c4eb0b0ebebdc57fbf529efb67b89b5488e92bb13ce",
          "transactionIndex": "0x0",
          "logIndex": "0x0",
          "removed": false
        }
      ],
      "status": "0x1",
      "logsBloom": "0x00000000000000000000000000000080000000000000000000800000000000000000008000000000000001000000000000000000000000000000000000000000000000000000000000000000000000000001000000000000000000000000000000000000000000000020000000000000000000000000000000000000000000400000000000000000000000000000000000000000000000020000000000000000000000000000000000000000000000000000000000000000000000000001000200000000000000000000000000000000000000000000000000000000000000000000000000000200000000000000000000000000000000000000000040000000",
      "effectiveGasPrice": "0xe987756e00"
    },
    {
      "transactionHash": "0x565b85850222ef5482e56163fd868963c876e51a266179da818d0a34b3f45a4a",
      "transactionIndex": "0x0",
      "blockHash": "0xe0fd00753dc08f8ce1382dd4c319c90c3313afe62f223c9dedbc7457ba140429",
      "blockNumber": "0x3264db",
      "from": "0xD93142ED5B85FcA4550153088750005759CE8318",
      "to": "0xB5b060055F0d1eF5174329913ef861bC3aDdF029",
      "cumulativeGasUsed": "0xc8b4",
      "gasUsed": "0xc8b4",
      "contractAddress": null,
      "logs": [
        {
          "address": "0xB5b060055F0d1eF5174329913ef861bC3aDdF029",
          "topics": [
            "0xddf252ad1be2c89b69c2b068fc378daa952ba7f163c4a11628f55a4df523b3ef",
            "0x000000000000000000000000d93142ed5b85fca4550153088750005759ce8318",
            "0x00000000000000000000000063df314ea0912412ff1cdc5a43585477d08ce5e9"
          ],
          "data": "0x000000000000000000000000000000000000000000295be96e64066972000000",
          "blockHash": "0xe0fd00753dc08f8ce1382dd4c319c90c3313afe62f223c9dedbc7457ba140429",
          "blockNumber": "0x3264db",
          "transactionHash": "0x565b85850222ef5482e56163fd868963c876e51a266179da818d0a34b3f45a4a",
          "transactionIndex": "0x0",
          "logIndex": "0x0",
          "removed": false
        }
      ],
      "status": "0x1",
      "logsBloom": "0x00000000000000000000000000000000000000000000000000000000000000000000000000000000000000000000000000000000000000000000000000000000000000000000000000000008000000000000000000000000000000000000020000000000000000000000000000000000000000000000100000000010000000000000000000000000000000000000000000000000000000020000000000000000000000000000000000000000000000000000000000000000000000000081000000000002000000000000000000000000020000000000200000000000000000000000000000000200000000000000000000000020000000000000000000000000",
      "effectiveGasPrice": "0xe987756e00"
    }
  ],
  "libraries": [],
  "pending": [],
  "path": "/Users/CALVIN/crypto/velocimeter/gg/contracts-latest/broadcast/FlowConvertorDeployment.s.sol/7700/run-latest.json",
  "returns": {},
  "timestamp": 1678522880,
  "chain": 7700,
  "multi": false,
  "commit": "2d7287e"
}